:100000000C9446000C9465000C9465000C946500FB
:100010000C9465000C9465000C9465000C946500CC
:100020000C9465000C9465000C9465000C946500BC
:100030000C9465000C9465000C9465000C946500AC
:100040000C9465000C9465000C9465000C9465009C
:100050000C9465000C9465000C9465000C9465008C
:100060000C9465000C9465000C9465000C9465007C
:100070000C9465000C9465000C9465000C9465006C
:100080000C9465000C9465000C94650011241FBE4F
:10009000CFEFD0E4DEBFCDBF11E0A0E0B1E0ECE3F4
:1000A000F2E000E00BBF02C007900D92A231B10751
:1000B000D9F721E0A2E1B1E001C01D92AC31B20755
:1000C000E1F70E94FD000C941C010C940000CF93FA
:1000D000C82F8A3019F48DE00E9467008091C0001B
:1000E00085FFFCCFC093C60080E090E0CF910895DB
:1000F0008091120190911301009719F0019761F01E
:10010000089581E090E09093130180931201109282
:10011000140110921601089581E090E0909313016C
:100120008093120180911601E82FF0E0E050FF4F1C
:10013000908190931401823020F48F5F8093160198
:10014000089510921601089580911A0190911B0153
:100150008130910569F018F0029789F016C081E0AE
:1001600090E090931B0180931A01109219010DC029
:1001700082E090E090931B0180931A0106C081E019
:1001800090E090931B0180931A0180911A01909145
:100190001B018130910519F0029729F0089588E03C
:1001A0008093190108951092190108958091170103
:1001B00090911801009719F0019751F00FC081E05C
:1001C00090E090931801809317011092150106C0DA
:1001D00081E090E0909318018093170180911701BE
:1001E00090911801019741F48091140187709091CA
:1001F0001901892B8093150108958FEF84B915B8E3
:10020000109213011092120110921B0110921A0108
:1002100010921801109217011092140110921901F6
:10022000109215010E9478000E94A4000E94D6003E
:0C0230008091150185B9F6CFF894FFCF3E
:10023C000100040000000200000000670000000044
:02024C000000B0
:00000001FF
